{
  "contractName": "Ronda",
  "abi": [
    {
      "inputs": [],
      "stateMutability": "nonpayable",
      "type": "constructor"
    },
    {
      "anonymous": false,
      "inputs": [
        {
          "indexed": true,
          "internalType": "address",
          "name": "owner",
          "type": "address"
        },
        {
          "indexed": true,
          "internalType": "address",
          "name": "approved",
          "type": "address"
        },
        {
          "indexed": true,
          "internalType": "uint256",
          "name": "tokenId",
          "type": "uint256"
        }
      ],
      "name": "Approval",
      "type": "event"
    },
    {
      "anonymous": false,
      "inputs": [
        {
          "indexed": true,
          "internalType": "address",
          "name": "owner",
          "type": "address"
        },
        {
          "indexed": true,
          "internalType": "address",
          "name": "operator",
          "type": "address"
        },
        {
          "indexed": false,
          "internalType": "bool",
          "name": "approved",
          "type": "bool"
        }
      ],
      "name": "ApprovalForAll",
      "type": "event"
    },
    {
      "anonymous": false,
      "inputs": [
        {
          "indexed": true,
          "internalType": "address",
          "name": "previousOwner",
          "type": "address"
        },
        {
          "indexed": true,
          "internalType": "address",
          "name": "newOwner",
          "type": "address"
        }
      ],
      "name": "OwnershipTransferred",
      "type": "event"
    },
    {
      "anonymous": false,
      "inputs": [
        {
          "indexed": true,
          "internalType": "address",
          "name": "from",
          "type": "address"
        },
        {
          "indexed": true,
          "internalType": "address",
          "name": "to",
          "type": "address"
        },
        {
          "indexed": true,
          "internalType": "uint256",
          "name": "tokenId",
          "type": "uint256"
        }
      ],
      "name": "Transfer",
      "type": "event"
    },
    {
      "inputs": [
        {
          "internalType": "address",
          "name": "to",
          "type": "address"
        },
        {
          "internalType": "uint256",
          "name": "tokenId",
          "type": "uint256"
        }
      ],
      "name": "approve",
      "outputs": [],
      "stateMutability": "nonpayable",
      "type": "function"
    },
    {
      "inputs": [
        {
          "internalType": "address",
          "name": "owner",
          "type": "address"
        }
      ],
      "name": "balanceOf",
      "outputs": [
        {
          "internalType": "uint256",
          "name": "",
          "type": "uint256"
        }
      ],
      "stateMutability": "view",
      "type": "function",
      "constant": true
    },
    {
      "inputs": [
        {
          "internalType": "uint256",
          "name": "tokenId",
          "type": "uint256"
        }
      ],
      "name": "getApproved",
      "outputs": [
        {
          "internalType": "address",
          "name": "",
          "type": "address"
        }
      ],
      "stateMutability": "view",
      "type": "function",
      "constant": true
    },
    {
      "inputs": [
        {
          "internalType": "address",
          "name": "owner",
          "type": "address"
        },
        {
          "internalType": "address",
          "name": "operator",
          "type": "address"
        }
      ],
      "name": "isApprovedForAll",
      "outputs": [
        {
          "internalType": "bool",
          "name": "",
          "type": "bool"
        }
      ],
      "stateMutability": "view",
      "type": "function",
      "constant": true
    },
    {
      "inputs": [],
      "name": "name",
      "outputs": [
        {
          "internalType": "string",
          "name": "",
          "type": "string"
        }
      ],
      "stateMutability": "view",
      "type": "function",
      "constant": true
    },
    {
      "inputs": [],
      "name": "owner",
      "outputs": [
        {
          "internalType": "address",
          "name": "",
          "type": "address"
        }
      ],
      "stateMutability": "view",
      "type": "function",
      "constant": true
    },
    {
      "inputs": [
        {
          "internalType": "uint256",
          "name": "tokenId",
          "type": "uint256"
        }
      ],
      "name": "ownerOf",
      "outputs": [
        {
          "internalType": "address",
          "name": "",
          "type": "address"
        }
      ],
      "stateMutability": "view",
      "type": "function",
      "constant": true
    },
    {
      "inputs": [],
      "name": "renounceOwnership",
      "outputs": [],
      "stateMutability": "nonpayable",
      "type": "function"
    },
    {
      "inputs": [
        {
          "internalType": "address",
          "name": "from",
          "type": "address"
        },
        {
          "internalType": "address",
          "name": "to",
          "type": "address"
        },
        {
          "internalType": "uint256",
          "name": "tokenId",
          "type": "uint256"
        }
      ],
      "name": "safeTransferFrom",
      "outputs": [],
      "stateMutability": "nonpayable",
      "type": "function"
    },
    {
      "inputs": [
        {
          "internalType": "address",
          "name": "from",
          "type": "address"
        },
        {
          "internalType": "address",
          "name": "to",
          "type": "address"
        },
        {
          "internalType": "uint256",
          "name": "tokenId",
          "type": "uint256"
        },
        {
          "internalType": "bytes",
          "name": "_data",
          "type": "bytes"
        }
      ],
      "name": "safeTransferFrom",
      "outputs": [],
      "stateMutability": "nonpayable",
      "type": "function"
    },
    {
      "inputs": [
        {
          "internalType": "address",
          "name": "operator",
          "type": "address"
        },
        {
          "internalType": "bool",
          "name": "approved",
          "type": "bool"
        }
      ],
      "name": "setApprovalForAll",
      "outputs": [],
      "stateMutability": "nonpayable",
      "type": "function"
    },
    {
      "inputs": [
        {
          "internalType": "bytes4",
          "name": "interfaceId",
          "type": "bytes4"
        }
      ],
      "name": "supportsInterface",
      "outputs": [
        {
          "internalType": "bool",
          "name": "",
          "type": "bool"
        }
      ],
      "stateMutability": "view",
      "type": "function",
      "constant": true
    },
    {
      "inputs": [],
      "name": "symbol",
      "outputs": [
        {
          "internalType": "string",
          "name": "",
          "type": "string"
        }
      ],
      "stateMutability": "view",
      "type": "function",
      "constant": true
    },
    {
      "inputs": [
        {
          "internalType": "uint256",
          "name": "tokenId",
          "type": "uint256"
        }
      ],
      "name": "tokenURI",
      "outputs": [
        {
          "internalType": "string",
          "name": "",
          "type": "string"
        }
      ],
      "stateMutability": "view",
      "type": "function",
      "constant": true
    },
    {
      "inputs": [
        {
          "internalType": "address",
          "name": "from",
          "type": "address"
        },
        {
          "internalType": "address",
          "name": "to",
          "type": "address"
        },
        {
          "internalType": "uint256",
          "name": "tokenId",
          "type": "uint256"
        }
      ],
      "name": "transferFrom",
      "outputs": [],
      "stateMutability": "nonpayable",
      "type": "function"
    },
    {
      "inputs": [
        {
          "internalType": "address",
          "name": "newOwner",
          "type": "address"
        }
      ],
      "name": "transferOwnership",
      "outputs": [],
      "stateMutability": "nonpayable",
      "type": "function"
    },
    {
      "inputs": [
        {
          "internalType": "string",
          "name": "baseURI",
          "type": "string"
        }
      ],
      "name": "setBaseURI",
      "outputs": [],
      "stateMutability": "nonpayable",
      "type": "function"
    },
    {
      "inputs": [],
      "name": "totalSupply",
      "outputs": [
        {
          "internalType": "uint256",
          "name": "",
          "type": "uint256"
        }
      ],
      "stateMutability": "view",
      "type": "function",
      "constant": true
    },
    {
      "inputs": [
        {
          "internalType": "uint256",
          "name": "_amount",
          "type": "uint256"
        }
      ],
      "name": "publicMint",
      "outputs": [],
      "stateMutability": "payable",
      "type": "function",
      "payable": true
    },
    {
      "inputs": [
        {
          "internalType": "uint256",
          "name": "tokenId",
          "type": "uint256"
        }
      ],
      "name": "get",
      "outputs": [
        {
          "internalType": "uint8",
          "name": "_type",
          "type": "uint8"
        },
        {
          "internalType": "uint8",
          "name": "_number",
          "type": "uint8"
        }
      ],
      "stateMutability": "view",
      "type": "function",
      "constant": true
    }
  ],
  "bytecode": "0x6080604052666a94d74f4300006008553480156200001c57600080fd5b506040518060400160405280600581526020017f526f6e64610000000000000000000000000000000000000000000000000000008152506040518060400160405280600481526020017f524e4441000000000000000000000000000000000000000000000000000000008152508160009080519060200190620000a192919062000905565b508060019080519060200190620000ba92919062000905565b505050620000dd620000d16200011d60201b60201c565b6200012560201b60201c565b62000107604051806060016040528060248152602001620044df60249139620001eb60201b60201c565b620001176200029660201b60201c565b62000f9d565b600033905090565b6000600660009054906101000a900473ffffffffffffffffffffffffffffffffffffffff16905081600660006101000a81548173ffffffffffffffffffffffffffffffffffffffff021916908373ffffffffffffffffffffffffffffffffffffffff1602179055508173ffffffffffffffffffffffffffffffffffffffff168173ffffffffffffffffffffffffffffffffffffffff167f8be0079c531659141344cd1fd0a4f28419497f9722a3daafe3b4186f6b6457e060405160405180910390a35050565b620001fb6200011d60201b60201c565b73ffffffffffffffffffffffffffffffffffffffff16620002216200038960201b60201c565b73ffffffffffffffffffffffffffffffffffffffff16146200027a576040517f08c379a0000000000000000000000000000000000000000000000000000000008152600401620002719062000a16565b60405180910390fd5b80600a90805190602001906200029292919062000905565b5050565b60006001620002aa620003b360201b60201c565b620002b6919062000a71565b90506000620002ce60006004620003d160201b60201c565b90506000620002e660006009620003d160201b60201c565b905060405180604001604052808360ff1681526020018260ff168152506009600085815260200190815260200160002060008201518160000160006101000a81548160ff021916908360ff16021790555060208201518160000160016101000a81548160ff021916908360ff1602179055509050506200036d33846200042960201b60201c565b6200038460076200044f60201b6200119e1760201c565b505050565b6000600660009054906101000a900473ffffffffffffffffffffffffffffffffffffffff16905090565b6000620003cc60076200046560201b620011b41760201c565b905090565b60008260ff168260ff164233604051602001620003f092919062000b77565b6040516020818303038152906040528051906020012060001c62000415919062000bd6565b62000421919062000a71565b905092915050565b6200044b8282604051806020016040528060008152506200047360201b60201c565b5050565b6001816000016000828254019250508190555050565b600081600001549050919050565b620004858383620004e160201b60201c565b6200049a6000848484620006c760201b60201c565b620004dc576040517f08c379a0000000000000000000000000000000000000000000000000000000008152600401620004d39062000c84565b60405180910390fd5b505050565b600073ffffffffffffffffffffffffffffffffffffffff168273ffffffffffffffffffffffffffffffffffffffff16141562000554576040517f08c379a00000000000000000000000000000000000000000000000000000000081526004016200054b9062000cf6565b60405180910390fd5b62000565816200088160201b60201c565b15620005a8576040517f08c379a00000000000000000000000000000000000000000000000000000000081526004016200059f9062000d68565b60405180910390fd5b620005bc60008383620008ed60201b60201c565b6001600360008473ffffffffffffffffffffffffffffffffffffffff1673ffffffffffffffffffffffffffffffffffffffff16815260200190815260200160002060008282546200060e919062000a71565b92505081905550816002600083815260200190815260200160002060006101000a81548173ffffffffffffffffffffffffffffffffffffffff021916908373ffffffffffffffffffffffffffffffffffffffff160217905550808273ffffffffffffffffffffffffffffffffffffffff16600073ffffffffffffffffffffffffffffffffffffffff167fddf252ad1be2c89b69c2b068fc378daa952ba7f163c4a11628f55a4df523b3ef60405160405180910390a45050565b6000620006f58473ffffffffffffffffffffffffffffffffffffffff16620008f260201b620011c21760201c565b1562000874578373ffffffffffffffffffffffffffffffffffffffff1663150b7a02620007276200011d60201b60201c565b8786866040518563ffffffff1660e01b81526004016200074b949392919062000e50565b602060405180830381600087803b1580156200076657600080fd5b505af19250505080156200079a57506040513d601f19601f8201168201806040525081019062000797919062000f06565b60015b62000823573d8060008114620007cd576040519150601f19603f3d011682016040523d82523d6000602084013e620007d2565b606091505b506000815114156200081b576040517f08c379a0000000000000000000000000000000000000000000000000000000008152600401620008129062000c84565b60405180910390fd5b805181602001fd5b63150b7a0260e01b7bffffffffffffffffffffffffffffffffffffffffffffffffffffffff1916817bffffffffffffffffffffffffffffffffffffffffffffffffffffffff19161491505062000879565b600190505b949350505050565b60008073ffffffffffffffffffffffffffffffffffffffff166002600084815260200190815260200160002060009054906101000a900473ffffffffffffffffffffffffffffffffffffffff1673ffffffffffffffffffffffffffffffffffffffff1614159050919050565b505050565b600080823b905060008111915050919050565b828054620009139062000f67565b90600052602060002090601f01602090048101928262000937576000855562000983565b82601f106200095257805160ff191683800117855562000983565b8280016001018555821562000983579182015b828111156200098257825182559160200191906001019062000965565b5b50905062000992919062000996565b5090565b5b80821115620009b157600081600090555060010162000997565b5090565b600082825260208201905092915050565b7f4f776e61626c653a2063616c6c6572206973206e6f7420746865206f776e6572600082015250565b6000620009fe602083620009b5565b915062000a0b82620009c6565b602082019050919050565b6000602082019050818103600083015262000a3181620009ef565b9050919050565b6000819050919050565b7f4e487b7100000000000000000000000000000000000000000000000000000000600052601160045260246000fd5b600062000a7e8262000a38565b915062000a8b8362000a38565b9250827fffffffffffffffffffffffffffffffffffffffffffffffffffffffffffffffff0382111562000ac35762000ac262000a42565b5b828201905092915050565b6000819050919050565b62000aed62000ae78262000a38565b62000ace565b82525050565b600073ffffffffffffffffffffffffffffffffffffffff82169050919050565b600062000b208262000af3565b9050919050565b60008160601b9050919050565b600062000b418262000b27565b9050919050565b600062000b558262000b34565b9050919050565b62000b7162000b6b8262000b13565b62000b48565b82525050565b600062000b85828562000ad8565b60208201915062000b97828462000b5c565b6014820191508190509392505050565b7f4e487b7100000000000000000000000000000000000000000000000000000000600052601260045260246000fd5b600062000be38262000a38565b915062000bf08362000a38565b92508262000c035762000c0262000ba7565b5b828206905092915050565b7f4552433732313a207472616e7366657220746f206e6f6e20455243373231526560008201527f63656976657220696d706c656d656e7465720000000000000000000000000000602082015250565b600062000c6c603283620009b5565b915062000c798262000c0e565b604082019050919050565b6000602082019050818103600083015262000c9f8162000c5d565b9050919050565b7f4552433732313a206d696e7420746f20746865207a65726f2061646472657373600082015250565b600062000cde602083620009b5565b915062000ceb8262000ca6565b602082019050919050565b6000602082019050818103600083015262000d118162000ccf565b9050919050565b7f4552433732313a20746f6b656e20616c7265616479206d696e74656400000000600082015250565b600062000d50601c83620009b5565b915062000d5d8262000d18565b602082019050919050565b6000602082019050818103600083015262000d838162000d41565b9050919050565b62000d958162000b13565b82525050565b62000da68162000a38565b82525050565b600081519050919050565b600082825260208201905092915050565b60005b8381101562000de857808201518184015260208101905062000dcb565b8381111562000df8576000848401525b50505050565b6000601f19601f8301169050919050565b600062000e1c8262000dac565b62000e28818562000db7565b935062000e3a81856020860162000dc8565b62000e458162000dfe565b840191505092915050565b600060808201905062000e67600083018762000d8a565b62000e76602083018662000d8a565b62000e85604083018562000d9b565b818103606083015262000e99818462000e0f565b905095945050505050565b600080fd5b60007fffffffff0000000000000000000000000000000000000000000000000000000082169050919050565b62000ee08162000ea9565b811462000eec57600080fd5b50565b60008151905062000f008162000ed5565b92915050565b60006020828403121562000f1f5762000f1e62000ea4565b5b600062000f2f8482850162000eef565b91505092915050565b7f4e487b7100000000000000000000000000000000000000000000000000000000600052602260045260246000fd5b6000600282049050600182168062000f8057607f821691505b6020821081141562000f975762000f9662000f38565b5b50919050565b6135328062000fad6000396000f3fe60806040526004361061011f5760003560e01c806370a08231116100a0578063a22cb46511610064578063a22cb465146103d9578063b88d4fde14610402578063c87b56dd1461042b578063e985e9c514610468578063f2fde38b146104a55761011f565b806370a08231146102f1578063715018a61461032e5780638da5cb5b146103455780639507d39a1461037057806395d89b41146103ae5761011f565b806323b872dd116100e757806323b872dd1461021d5780632db115441461024657806342842e0e1461026257806355f804b31461028b5780636352211e146102b45761011f565b806301ffc9a71461012457806306fdde0314610161578063081812fc1461018c578063095ea7b3146101c957806318160ddd146101f2575b600080fd5b34801561013057600080fd5b5061014b60048036038101906101469190611fc3565b6104ce565b604051610158919061200b565b60405180910390f35b34801561016d57600080fd5b506101766105b0565b60405161018391906120bf565b60405180910390f35b34801561019857600080fd5b506101b360048036038101906101ae9190612117565b610642565b6040516101c09190612185565b60405180910390f35b3480156101d557600080fd5b506101f060048036038101906101eb91906121cc565b6106c7565b005b3480156101fe57600080fd5b506102076107df565b604051610214919061221b565b60405180910390f35b34801561022957600080fd5b50610244600480360381019061023f9190612236565b6107f0565b005b610260600480360381019061025b9190612117565b610850565b005b34801561026e57600080fd5b5061028960048036038101906102849190612236565b610969565b005b34801561029757600080fd5b506102b260048036038101906102ad91906123be565b610989565b005b3480156102c057600080fd5b506102db60048036038101906102d69190612117565b610a1f565b6040516102e89190612185565b60405180910390f35b3480156102fd57600080fd5b5061031860048036038101906103139190612407565b610ad1565b604051610325919061221b565b60405180910390f35b34801561033a57600080fd5b50610343610b89565b005b34801561035157600080fd5b5061035a610c11565b6040516103679190612185565b60405180910390f35b34801561037c57600080fd5b5061039760048036038101906103929190612117565b610c3b565b6040516103a5929190612450565b60405180910390f35b3480156103ba57600080fd5b506103c3610cf6565b6040516103d091906120bf565b60405180910390f35b3480156103e557600080fd5b5061040060048036038101906103fb91906124a5565b610d88565b005b34801561040e57600080fd5b5061042960048036038101906104249190612586565b610f09565b005b34801561043757600080fd5b50610452600480360381019061044d9190612117565b610f6b565b60405161045f91906120bf565b60405180910390f35b34801561047457600080fd5b5061048f600480360381019061048a9190612609565b611012565b60405161049c919061200b565b60405180910390f35b3480156104b157600080fd5b506104cc60048036038101906104c79190612407565b6110a6565b005b60007f80ac58cd000000000000000000000000000000000000000000000000000000007bffffffffffffffffffffffffffffffffffffffffffffffffffffffff1916827bffffffffffffffffffffffffffffffffffffffffffffffffffffffff1916148061059957507f5b5e139f000000000000000000000000000000000000000000000000000000007bffffffffffffffffffffffffffffffffffffffffffffffffffffffff1916827bffffffffffffffffffffffffffffffffffffffffffffffffffffffff1916145b806105a957506105a8826111d5565b5b9050919050565b6060600080546105bf90612678565b80601f01602080910402602001604051908101604052809291908181526020018280546105eb90612678565b80156106385780601f1061060d57610100808354040283529160200191610638565b820191906000526020600020905b81548152906001019060200180831161061b57829003601f168201915b5050505050905090565b600061064d8261123f565b61068c576040517f08c379a00000000000000000000000000000000000000000000000000000000081526004016106839061271c565b60405180910390fd5b6004600083815260200190815260200160002060009054906101000a900473ffffffffffffffffffffffffffffffffffffffff169050919050565b60006106d282610a1f565b90508073ffffffffffffffffffffffffffffffffffffffff168373ffffffffffffffffffffffffffffffffffffffff161415610743576040517f08c379a000000000000000000000000000000000000000000000000000000000815260040161073a906127ae565b60405180910390fd5b8073ffffffffffffffffffffffffffffffffffffffff166107626112ab565b73ffffffffffffffffffffffffffffffffffffffff16148061079157506107908161078b6112ab565b611012565b5b6107d0576040517f08c379a00000000000000000000000000000000000000000000000000000000081526004016107c790612840565b60405180910390fd5b6107da83836112b3565b505050565b60006107eb60076111b4565b905090565b6108016107fb6112ab565b8261136c565b610840576040517f08c379a0000000000000000000000000000000000000000000000000000000008152600401610837906128d2565b60405180910390fd5b61084b83838361144a565b505050565b600061085a6107df565b90506000821161089f576040517f08c379a00000000000000000000000000000000000000000000000000000000081526004016108969061293e565b60405180910390fd5b606f82826108ad919061298d565b11156108ee576040517f08c379a00000000000000000000000000000000000000000000000000000000081526004016108e590612a2f565b60405180910390fd5b816008546108fc9190612a4f565b34101561093e576040517f08c379a000000000000000000000000000000000000000000000000000000000815260040161093590612b1b565b60405180910390fd5b60005b82811015610964576109516116a6565b808061095c90612b3b565b915050610941565b505050565b61098483838360405180602001604052806000815250610f09565b505050565b6109916112ab565b73ffffffffffffffffffffffffffffffffffffffff166109af610c11565b73ffffffffffffffffffffffffffffffffffffffff1614610a05576040517f08c379a00000000000000000000000000000000000000000000000000000000081526004016109fc90612bd0565b60405180910390fd5b80600a9080519060200190610a1b929190611eb4565b5050565b6000806002600084815260200190815260200160002060009054906101000a900473ffffffffffffffffffffffffffffffffffffffff169050600073ffffffffffffffffffffffffffffffffffffffff168173ffffffffffffffffffffffffffffffffffffffff161415610ac8576040517f08c379a0000000000000000000000000000000000000000000000000000000008152600401610abf90612c62565b60405180910390fd5b80915050919050565b60008073ffffffffffffffffffffffffffffffffffffffff168273ffffffffffffffffffffffffffffffffffffffff161415610b42576040517f08c379a0000000000000000000000000000000000000000000000000000000008152600401610b3990612cf4565b60405180910390fd5b600360008373ffffffffffffffffffffffffffffffffffffffff1673ffffffffffffffffffffffffffffffffffffffff168152602001908152602001600020549050919050565b610b916112ab565b73ffffffffffffffffffffffffffffffffffffffff16610baf610c11565b73ffffffffffffffffffffffffffffffffffffffff1614610c05576040517f08c379a0000000000000000000000000000000000000000000000000000000008152600401610bfc90612bd0565b60405180910390fd5b610c0f600061176a565b565b6000600660009054906101000a900473ffffffffffffffffffffffffffffffffffffffff16905090565b600080610c478361123f565b610c86576040517f08c379a0000000000000000000000000000000000000000000000000000000008152600401610c7d90612d60565b60405180910390fd5b6000600960008581526020019081526020016000206040518060400160405290816000820160009054906101000a900460ff1660ff1660ff1681526020016000820160019054906101000a900460ff1660ff1660ff16815250509050806000015192508060200151915050915091565b606060018054610d0590612678565b80601f0160208091040260200160405190810160405280929190818152602001828054610d3190612678565b8015610d7e5780601f10610d5357610100808354040283529160200191610d7e565b820191906000526020600020905b815481529060010190602001808311610d6157829003601f168201915b5050505050905090565b610d906112ab565b73ffffffffffffffffffffffffffffffffffffffff168273ffffffffffffffffffffffffffffffffffffffff161415610dfe576040517f08c379a0000000000000000000000000000000000000000000000000000000008152600401610df590612dcc565b60405180910390fd5b8060056000610e0b6112ab565b73ffffffffffffffffffffffffffffffffffffffff1673ffffffffffffffffffffffffffffffffffffffff16815260200190815260200160002060008473ffffffffffffffffffffffffffffffffffffffff1673ffffffffffffffffffffffffffffffffffffffff16815260200190815260200160002060006101000a81548160ff0219169083151502179055508173ffffffffffffffffffffffffffffffffffffffff16610eb86112ab565b73ffffffffffffffffffffffffffffffffffffffff167f17307eab39ab6107e8899845ad3d59bd9653f200f220920489ca2b5937696c3183604051610efd919061200b565b60405180910390a35050565b610f1a610f146112ab565b8361136c565b610f59576040517f08c379a0000000000000000000000000000000000000000000000000000000008152600401610f50906128d2565b60405180910390fd5b610f6584848484611830565b50505050565b6060610f768261123f565b610fb5576040517f08c379a0000000000000000000000000000000000000000000000000000000008152600401610fac90612e5e565b60405180910390fd5b6000610fbf61188c565b90506000815111610fdf576040518060200160405280600081525061100a565b80610fe98461191e565b604051602001610ffa929190612eba565b6040516020818303038152906040525b915050919050565b6000600560008473ffffffffffffffffffffffffffffffffffffffff1673ffffffffffffffffffffffffffffffffffffffff16815260200190815260200160002060008373ffffffffffffffffffffffffffffffffffffffff1673ffffffffffffffffffffffffffffffffffffffff16815260200190815260200160002060009054906101000a900460ff16905092915050565b6110ae6112ab565b73ffffffffffffffffffffffffffffffffffffffff166110cc610c11565b73ffffffffffffffffffffffffffffffffffffffff1614611122576040517f08c379a000000000000000000000000000000000000000000000000000000000815260040161111990612bd0565b60405180910390fd5b600073ffffffffffffffffffffffffffffffffffffffff168173ffffffffffffffffffffffffffffffffffffffff161415611192576040517f08c379a000000000000000000000000000000000000000000000000000000000815260040161118990612f50565b60405180910390fd5b61119b8161176a565b50565b6001816000016000828254019250508190555050565b600081600001549050919050565b600080823b905060008111915050919050565b60007f01ffc9a7000000000000000000000000000000000000000000000000000000007bffffffffffffffffffffffffffffffffffffffffffffffffffffffff1916827bffffffffffffffffffffffffffffffffffffffffffffffffffffffff1916149050919050565b60008073ffffffffffffffffffffffffffffffffffffffff166002600084815260200190815260200160002060009054906101000a900473ffffffffffffffffffffffffffffffffffffffff1673ffffffffffffffffffffffffffffffffffffffff1614159050919050565b600033905090565b816004600083815260200190815260200160002060006101000a81548173ffffffffffffffffffffffffffffffffffffffff021916908373ffffffffffffffffffffffffffffffffffffffff160217905550808273ffffffffffffffffffffffffffffffffffffffff1661132683610a1f565b73ffffffffffffffffffffffffffffffffffffffff167f8c5be1e5ebec7d5bd14f71427d1e84f3dd0314c0f7b2291e5b200ac8c7c3b92560405160405180910390a45050565b60006113778261123f565b6113b6576040517f08c379a00000000000000000000000000000000000000000000000000000000081526004016113ad90612fe2565b60405180910390fd5b60006113c183610a1f565b90508073ffffffffffffffffffffffffffffffffffffffff168473ffffffffffffffffffffffffffffffffffffffff16148061143057508373ffffffffffffffffffffffffffffffffffffffff1661141884610642565b73ffffffffffffffffffffffffffffffffffffffff16145b8061144157506114408185611012565b5b91505092915050565b8273ffffffffffffffffffffffffffffffffffffffff1661146a82610a1f565b73ffffffffffffffffffffffffffffffffffffffff16146114c0576040517f08c379a00000000000000000000000000000000000000000000000000000000081526004016114b790613074565b60405180910390fd5b600073ffffffffffffffffffffffffffffffffffffffff168273ffffffffffffffffffffffffffffffffffffffff161415611530576040517f08c379a000000000000000000000000000000000000000000000000000000000815260040161152790613106565b60405180910390fd5b61153b838383611a7f565b6115466000826112b3565b6001600360008573ffffffffffffffffffffffffffffffffffffffff1673ffffffffffffffffffffffffffffffffffffffff16815260200190815260200160002060008282546115969190613126565b925050819055506001600360008473ffffffffffffffffffffffffffffffffffffffff1673ffffffffffffffffffffffffffffffffffffffff16815260200190815260200160002060008282546115ed919061298d565b92505081905550816002600083815260200190815260200160002060006101000a81548173ffffffffffffffffffffffffffffffffffffffff021916908373ffffffffffffffffffffffffffffffffffffffff160217905550808273ffffffffffffffffffffffffffffffffffffffff168473ffffffffffffffffffffffffffffffffffffffff167fddf252ad1be2c89b69c2b068fc378daa952ba7f163c4a11628f55a4df523b3ef60405160405180910390a4505050565b600060016116b26107df565b6116bc919061298d565b905060006116cc60006004611a84565b905060006116dc60006009611a84565b905060405180604001604052808360ff1681526020018260ff168152506009600085815260200190815260200160002060008201518160000160006101000a81548160ff021916908360ff16021790555060208201518160000160016101000a81548160ff021916908360ff16021790555090505061175b3384611ad6565b611765600761119e565b505050565b6000600660009054906101000a900473ffffffffffffffffffffffffffffffffffffffff16905081600660006101000a81548173ffffffffffffffffffffffffffffffffffffffff021916908373ffffffffffffffffffffffffffffffffffffffff1602179055508173ffffffffffffffffffffffffffffffffffffffff168173ffffffffffffffffffffffffffffffffffffffff167f8be0079c531659141344cd1fd0a4f28419497f9722a3daafe3b4186f6b6457e060405160405180910390a35050565b61183b84848461144a565b61184784848484611af4565b611886576040517f08c379a000000000000000000000000000000000000000000000000000000000815260040161187d906131cc565b60405180910390fd5b50505050565b6060600a805461189b90612678565b80601f01602080910402602001604051908101604052809291908181526020018280546118c790612678565b80156119145780601f106118e957610100808354040283529160200191611914565b820191906000526020600020905b8154815290600101906020018083116118f757829003601f168201915b5050505050905090565b60606000821415611966576040518060400160405280600181526020017f30000000000000000000000000000000000000000000000000000000000000008152509050611a7a565b600082905060005b6000821461199857808061198190612b3b565b915050600a82611991919061321b565b915061196e565b60008167ffffffffffffffff8111156119b4576119b3612293565b5b6040519080825280601f01601f1916602001820160405280156119e65781602001600182028036833780820191505090505b5090505b60008514611a73576001826119ff9190613126565b9150600a85611a0e919061324c565b6030611a1a919061298d565b60f81b818381518110611a3057611a2f61327d565b5b60200101907effffffffffffffffffffffffffffffffffffffffffffffffffffffffffffff1916908160001a905350600a85611a6c919061321b565b94506119ea565b8093505050505b919050565b505050565b60008260ff168260ff164233604051602001611aa1929190613315565b6040516020818303038152906040528051906020012060001c611ac4919061324c565b611ace919061298d565b905092915050565b611af0828260405180602001604052806000815250611c8b565b5050565b6000611b158473ffffffffffffffffffffffffffffffffffffffff166111c2565b15611c7e578373ffffffffffffffffffffffffffffffffffffffff1663150b7a02611b3e6112ab565b8786866040518563ffffffff1660e01b8152600401611b609493929190613396565b602060405180830381600087803b158015611b7a57600080fd5b505af1925050508015611bab57506040513d601f19601f82011682018060405250810190611ba891906133f7565b60015b611c2e573d8060008114611bdb576040519150601f19603f3d011682016040523d82523d6000602084013e611be0565b606091505b50600081511415611c26576040517f08c379a0000000000000000000000000000000000000000000000000000000008152600401611c1d906131cc565b60405180910390fd5b805181602001fd5b63150b7a0260e01b7bffffffffffffffffffffffffffffffffffffffffffffffffffffffff1916817bffffffffffffffffffffffffffffffffffffffffffffffffffffffff191614915050611c83565b600190505b949350505050565b611c958383611ce6565b611ca26000848484611af4565b611ce1576040517f08c379a0000000000000000000000000000000000000000000000000000000008152600401611cd8906131cc565b60405180910390fd5b505050565b600073ffffffffffffffffffffffffffffffffffffffff168273ffffffffffffffffffffffffffffffffffffffff161415611d56576040517f08c379a0000000000000000000000000000000000000000000000000000000008152600401611d4d90613470565b60405180910390fd5b611d5f8161123f565b15611d9f576040517f08c379a0000000000000000000000000000000000000000000000000000000008152600401611d96906134dc565b60405180910390fd5b611dab60008383611a7f565b6001600360008473ffffffffffffffffffffffffffffffffffffffff1673ffffffffffffffffffffffffffffffffffffffff1681526020019081526020016000206000828254611dfb919061298d565b92505081905550816002600083815260200190815260200160002060006101000a81548173ffffffffffffffffffffffffffffffffffffffff021916908373ffffffffffffffffffffffffffffffffffffffff160217905550808273ffffffffffffffffffffffffffffffffffffffff16600073ffffffffffffffffffffffffffffffffffffffff167fddf252ad1be2c89b69c2b068fc378daa952ba7f163c4a11628f55a4df523b3ef60405160405180910390a45050565b828054611ec090612678565b90600052602060002090601f016020900481019282611ee25760008555611f29565b82601f10611efb57805160ff1916838001178555611f29565b82800160010185558215611f29579182015b82811115611f28578251825591602001919060010190611f0d565b5b509050611f369190611f3a565b5090565b5b80821115611f53576000816000905550600101611f3b565b5090565b6000604051905090565b600080fd5b600080fd5b60007fffffffff0000000000000000000000000000000000000000000000000000000082169050919050565b611fa081611f6b565b8114611fab57600080fd5b50565b600081359050611fbd81611f97565b92915050565b600060208284031215611fd957611fd8611f61565b5b6000611fe784828501611fae565b91505092915050565b60008115159050919050565b61200581611ff0565b82525050565b60006020820190506120206000830184611ffc565b92915050565b600081519050919050565b600082825260208201905092915050565b60005b83811015612060578082015181840152602081019050612045565b8381111561206f576000848401525b50505050565b6000601f19601f8301169050919050565b600061209182612026565b61209b8185612031565b93506120ab818560208601612042565b6120b481612075565b840191505092915050565b600060208201905081810360008301526120d98184612086565b905092915050565b6000819050919050565b6120f4816120e1565b81146120ff57600080fd5b50565b600081359050612111816120eb565b92915050565b60006020828403121561212d5761212c611f61565b5b600061213b84828501612102565b91505092915050565b600073ffffffffffffffffffffffffffffffffffffffff82169050919050565b600061216f82612144565b9050919050565b61217f81612164565b82525050565b600060208201905061219a6000830184612176565b92915050565b6121a981612164565b81146121b457600080fd5b50565b6000813590506121c6816121a0565b92915050565b600080604083850312156121e3576121e2611f61565b5b60006121f1858286016121b7565b925050602061220285828601612102565b9150509250929050565b612215816120e1565b82525050565b6000602082019050612230600083018461220c565b92915050565b60008060006060848603121561224f5761224e611f61565b5b600061225d868287016121b7565b935050602061226e868287016121b7565b925050604061227f86828701612102565b9150509250925092565b600080fd5b600080fd5b7f4e487b7100000000000000000000000000000000000000000000000000000000600052604160045260246000fd5b6122cb82612075565b810181811067ffffffffffffffff821117156122ea576122e9612293565b5b80604052505050565b60006122fd611f57565b905061230982826122c2565b919050565b600067ffffffffffffffff82111561232957612328612293565b5b61233282612075565b9050602081019050919050565b82818337600083830152505050565b600061236161235c8461230e565b6122f3565b90508281526020810184848401111561237d5761237c61228e565b5b61238884828561233f565b509392505050565b600082601f8301126123a5576123a4612289565b5b81356123b584826020860161234e565b91505092915050565b6000602082840312156123d4576123d3611f61565b5b600082013567ffffffffffffffff8111156123f2576123f1611f66565b5b6123fe84828501612390565b91505092915050565b60006020828403121561241d5761241c611f61565b5b600061242b848285016121b7565b91505092915050565b600060ff82169050919050565b61244a81612434565b82525050565b60006040820190506124656000830185612441565b6124726020830184612441565b9392505050565b61248281611ff0565b811461248d57600080fd5b50565b60008135905061249f81612479565b92915050565b600080604083850312156124bc576124bb611f61565b5b60006124ca858286016121b7565b92505060206124db85828601612490565b9150509250929050565b600067ffffffffffffffff821115612500576124ff612293565b5b61250982612075565b9050602081019050919050565b6000612529612524846124e5565b6122f3565b9050828152602081018484840111156125455761254461228e565b5b61255084828561233f565b509392505050565b600082601f83011261256d5761256c612289565b5b813561257d848260208601612516565b91505092915050565b600080600080608085870312156125a05761259f611f61565b5b60006125ae878288016121b7565b94505060206125bf878288016121b7565b93505060406125d087828801612102565b925050606085013567ffffffffffffffff8111156125f1576125f0611f66565b5b6125fd87828801612558565b91505092959194509250565b600080604083850312156126205761261f611f61565b5b600061262e858286016121b7565b925050602061263f858286016121b7565b9150509250929050565b7f4e487b7100000000000000000000000000000000000000000000000000000000600052602260045260246000fd5b6000600282049050600182168061269057607f821691505b602082108114156126a4576126a3612649565b5b50919050565b7f4552433732313a20617070726f76656420717565727920666f72206e6f6e657860008201527f697374656e7420746f6b656e0000000000000000000000000000000000000000602082015250565b6000612706602c83612031565b9150612711826126aa565b604082019050919050565b60006020820190508181036000830152612735816126f9565b9050919050565b7f4552433732313a20617070726f76616c20746f2063757272656e74206f776e6560008201527f7200000000000000000000000000000000000000000000000000000000000000602082015250565b6000612798602183612031565b91506127a38261273c565b604082019050919050565b600060208201905081810360008301526127c78161278b565b9050919050565b7f4552433732313a20617070726f76652063616c6c6572206973206e6f74206f7760008201527f6e6572206e6f7220617070726f76656420666f7220616c6c0000000000000000602082015250565b600061282a603883612031565b9150612835826127ce565b604082019050919050565b600060208201905081810360008301526128598161281d565b9050919050565b7f4552433732313a207472616e736665722063616c6c6572206973206e6f74206f60008201527f776e6572206e6f7220617070726f766564000000000000000000000000000000602082015250565b60006128bc603183612031565b91506128c782612860565b604082019050919050565b600060208201905081810360008301526128eb816128af565b9050919050565b7f4d757374206d696e74206174206c656173742031000000000000000000000000600082015250565b6000612928601483612031565b9150612933826128f2565b602082019050919050565b600060208201905081810360008301526129578161291b565b9050919050565b7f4e487b7100000000000000000000000000000000000000000000000000000000600052601160045260246000fd5b6000612998826120e1565b91506129a3836120e1565b9250827fffffffffffffffffffffffffffffffffffffffffffffffffffffffffffffffff038211156129d8576129d761295e565b5b828201905092915050565b7f45786365656473206d6178696d756d20746f6b656e20737570706c792e000000600082015250565b6000612a19601d83612031565b9150612a24826129e3565b602082019050919050565b60006020820190508181036000830152612a4881612a0c565b9050919050565b6000612a5a826120e1565b9150612a65836120e1565b9250817fffffffffffffffffffffffffffffffffffffffffffffffffffffffffffffffff0483118215151615612a9e57612a9d61295e565b5b828202905092915050565b7f45746865722073656e74206973206e6f7420636f727265637420666f7220746f60008201527f6b656e2070726963652e00000000000000000000000000000000000000000000602082015250565b6000612b05602a83612031565b9150612b1082612aa9565b604082019050919050565b60006020820190508181036000830152612b3481612af8565b9050919050565b6000612b46826120e1565b91507fffffffffffffffffffffffffffffffffffffffffffffffffffffffffffffffff821415612b7957612b7861295e565b5b600182019050919050565b7f4f776e61626c653a2063616c6c6572206973206e6f7420746865206f776e6572600082015250565b6000612bba602083612031565b9150612bc582612b84565b602082019050919050565b60006020820190508181036000830152612be981612bad565b9050919050565b7f4552433732313a206f776e657220717565727920666f72206e6f6e657869737460008201527f656e7420746f6b656e0000000000000000000000000000000000000000000000602082015250565b6000612c4c602983612031565b9150612c5782612bf0565b604082019050919050565b60006020820190508181036000830152612c7b81612c3f565b9050919050565b7f4552433732313a2062616c616e636520717565727920666f7220746865207a6560008201527f726f206164647265737300000000000000000000000000000000000000000000602082015250565b6000612cde602a83612031565b9150612ce982612c82565b604082019050919050565b60006020820190508181036000830152612d0d81612cd1565b9050919050565b7f746f6b656e206e6f74206d696e74656400000000000000000000000000000000600082015250565b6000612d4a601083612031565b9150612d5582612d14565b602082019050919050565b60006020820190508181036000830152612d7981612d3d565b9050919050565b7f4552433732313a20617070726f766520746f2063616c6c657200000000000000600082015250565b6000612db6601983612031565b9150612dc182612d80565b602082019050919050565b60006020820190508181036000830152612de581612da9565b9050919050565b7f4552433732314d657461646174613a2055524920717565727920666f72206e6f60008201527f6e6578697374656e7420746f6b656e0000000000000000000000000000000000602082015250565b6000612e48602f83612031565b9150612e5382612dec565b604082019050919050565b60006020820190508181036000830152612e7781612e3b565b9050919050565b600081905092915050565b6000612e9482612026565b612e9e8185612e7e565b9350612eae818560208601612042565b80840191505092915050565b6000612ec68285612e89565b9150612ed28284612e89565b91508190509392505050565b7f4f776e61626c653a206e6577206f776e657220697320746865207a65726f206160008201527f6464726573730000000000000000000000000000000000000000000000000000602082015250565b6000612f3a602683612031565b9150612f4582612ede565b604082019050919050565b60006020820190508181036000830152612f6981612f2d565b9050919050565b7f4552433732313a206f70657261746f7220717565727920666f72206e6f6e657860008201527f697374656e7420746f6b656e0000000000000000000000000000000000000000602082015250565b6000612fcc602c83612031565b9150612fd782612f70565b604082019050919050565b60006020820190508181036000830152612ffb81612fbf565b9050919050565b7f4552433732313a207472616e73666572206f6620746f6b656e2074686174206960008201527f73206e6f74206f776e0000000000000000000000000000000000000000000000602082015250565b600061305e602983612031565b915061306982613002565b604082019050919050565b6000602082019050818103600083015261308d81613051565b9050919050565b7f4552433732313a207472616e7366657220746f20746865207a65726f2061646460008201527f7265737300000000000000000000000000000000000000000000000000000000602082015250565b60006130f0602483612031565b91506130fb82613094565b604082019050919050565b6000602082019050818103600083015261311f816130e3565b9050919050565b6000613131826120e1565b915061313c836120e1565b92508282101561314f5761314e61295e565b5b828203905092915050565b7f4552433732313a207472616e7366657220746f206e6f6e20455243373231526560008201527f63656976657220696d706c656d656e7465720000000000000000000000000000602082015250565b60006131b6603283612031565b91506131c18261315a565b604082019050919050565b600060208201905081810360008301526131e5816131a9565b9050919050565b7f4e487b7100000000000000000000000000000000000000000000000000000000600052601260045260246000fd5b6000613226826120e1565b9150613231836120e1565b925082613241576132406131ec565b5b828204905092915050565b6000613257826120e1565b9150613262836120e1565b925082613272576132716131ec565b5b828206905092915050565b7f4e487b7100000000000000000000000000000000000000000000000000000000600052603260045260246000fd5b6000819050919050565b6132c76132c2826120e1565b6132ac565b82525050565b60008160601b9050919050565b60006132e5826132cd565b9050919050565b60006132f7826132da565b9050919050565b61330f61330a82612164565b6132ec565b82525050565b600061332182856132b6565b60208201915061333182846132fe565b6014820191508190509392505050565b600081519050919050565b600082825260208201905092915050565b600061336882613341565b613372818561334c565b9350613382818560208601612042565b61338b81612075565b840191505092915050565b60006080820190506133ab6000830187612176565b6133b86020830186612176565b6133c5604083018561220c565b81810360608301526133d7818461335d565b905095945050505050565b6000815190506133f181611f97565b92915050565b60006020828403121561340d5761340c611f61565b5b600061341b848285016133e2565b91505092915050565b7f4552433732313a206d696e7420746f20746865207a65726f2061646472657373600082015250565b600061345a602083612031565b915061346582613424565b602082019050919050565b600060208201905081810360008301526134898161344d565b9050919050565b7f4552433732313a20746f6b656e20616c7265616479206d696e74656400000000600082015250565b60006134c6601c83612031565b91506134d182613490565b602082019050919050565b600060208201905081810360008301526134f5816134b9565b905091905056fea264697066735822122062cb2415d0be41ce0cc8d2c1fa871267f0344222593f965968e485508f94818b64736f6c63430008090033687474703a2f2f6c6f63616c686f73743a383038302f6f70656e7365612f746f6b656e2f",
  "immutableReferences": {},
  "source": "// SPDX-License-Identifier: MIT\npragma solidity ^0.8.0;\n\nimport \"@openzeppelin/contracts/access/Ownable.sol\";\nimport \"@openzeppelin/contracts/token/ERC721/ERC721.sol\";\nimport \"@openzeppelin/contracts/utils/Counters.sol\";\n\ncontract Ronda is ERC721, Ownable {\n    using Counters for Counters.Counter;\n    Counters.Counter private _tokenIdCounter;\n\n    uint256 private constant MAX_TOKENS = 111;\n    uint256 private mintPrice = 30000000 gwei; //0.03 Ether\n\n    struct Metadata {\n        uint8 _type;\n        uint8 _number;\n    }\n\n    mapping(uint256 => Metadata) token_metadata;\n\n    string private _currentBaseURI;\n\n    constructor() ERC721(\"Ronda\", \"RNDA\") {\n        setBaseURI(\"http://localhost:8080/opensea/token/\");\n        mint();\n    }\n\n    function _baseURI() internal view virtual override returns (string memory) {\n        return _currentBaseURI;\n    }\n\n    function setBaseURI(string memory baseURI) public onlyOwner {\n        _currentBaseURI = baseURI;\n    }\n\n    function totalSupply() public view returns (uint256) {\n        return _tokenIdCounter.current();\n    }\n\n    function publicMint(uint256 _amount) public payable {\n        uint256 _supply = totalSupply();\n        require(_amount > 0, \"Must mint at least 1\");\n        require(\n            _supply + _amount <= MAX_TOKENS,\n            \"Exceeds maximum token supply.\"\n        );\n        require(\n            msg.value >= mintPrice * _amount,\n            \"Ether sent is not correct for token price.\"\n        );\n\n        for (uint256 i; i < _amount; i++) {\n            mint();\n        }\n    }\n\n    function get(uint256 tokenId)\n        external\n        view\n        returns (uint8 _type, uint8 _number)\n    {\n        require(_exists(tokenId), \"token not minted\");\n        Metadata memory token = token_metadata[tokenId];\n        _type = token._type;\n        _number = token._number;\n    }\n\n    function mint() internal {\n        uint256 _tokenId = totalSupply() + 1;\n        uint8 _type = random(0, 4);\n        uint8 _number = random(0, 9);\n        token_metadata[_tokenId] = Metadata(_type, _number);\n        _safeMint(msg.sender, _tokenId);\n        _tokenIdCounter.increment();\n    }\n\n    function random(uint8 min, uint8 max) internal view returns (uint8) {\n        return\n            uint8(\n                (uint256(\n                    keccak256(abi.encodePacked(block.timestamp, msg.sender))\n                ) % max) + min\n            );\n    }\n}\n",
  "sourcePath": "/home/amine/playground/geeksblabla-ronda/src/contracts/Ronda.sol",
  "compiler": {
    "name": "solc",
    "version": "0.8.9+commit.e5eed63a.Emscripten.clang"
  },
  "schemaVersion": "3.4.3",
  "updatedAt": "2021-10-25T22:01:59.205Z",
  "networkType": "ethereum",
  "devdoc": {
    "kind": "dev",
    "methods": {
      "approve(address,uint256)": {
        "details": "See {IERC721-approve}."
      },
      "balanceOf(address)": {
        "details": "See {IERC721-balanceOf}."
      },
      "getApproved(uint256)": {
        "details": "See {IERC721-getApproved}."
      },
      "isApprovedForAll(address,address)": {
        "details": "See {IERC721-isApprovedForAll}."
      },
      "name()": {
        "details": "See {IERC721Metadata-name}."
      },
      "owner()": {
        "details": "Returns the address of the current owner."
      },
      "ownerOf(uint256)": {
        "details": "See {IERC721-ownerOf}."
      },
      "renounceOwnership()": {
        "details": "Leaves the contract without owner. It will not be possible to call `onlyOwner` functions anymore. Can only be called by the current owner. NOTE: Renouncing ownership will leave the contract without an owner, thereby removing any functionality that is only available to the owner."
      },
      "safeTransferFrom(address,address,uint256)": {
        "details": "See {IERC721-safeTransferFrom}."
      },
      "safeTransferFrom(address,address,uint256,bytes)": {
        "details": "See {IERC721-safeTransferFrom}."
      },
      "setApprovalForAll(address,bool)": {
        "details": "See {IERC721-setApprovalForAll}."
      },
      "supportsInterface(bytes4)": {
        "details": "See {IERC165-supportsInterface}."
      },
      "symbol()": {
        "details": "See {IERC721Metadata-symbol}."
      },
      "tokenURI(uint256)": {
        "details": "See {IERC721Metadata-tokenURI}."
      },
      "transferFrom(address,address,uint256)": {
        "details": "See {IERC721-transferFrom}."
      },
      "transferOwnership(address)": {
        "details": "Transfers ownership of the contract to a new account (`newOwner`). Can only be called by the current owner."
      }
    },
    "version": 1
  },
  "userdoc": {
    "kind": "user",
    "methods": {},
    "version": 1
  }
}